{
  "_format": "hh-sol-artifact-1",
  "contractName": "DAORegistry",
  "sourceName": "contracts/dao/DAORegistry.sol",
  "abi": [
    {
      "anonymous": false,
      "inputs": [
        {
          "indexed": false,
          "internalType": "string",
          "name": "collectionSlug",
          "type": "string"
        },
        {
          "indexed": false,
          "internalType": "string",
          "name": "name",
          "type": "string"
        },
        {
          "indexed": false,
          "internalType": "string",
          "name": "facebook",
          "type": "string"
        },
        {
          "indexed": false,
          "internalType": "string",
          "name": "twitter",
          "type": "string"
        }
      ],
      "name": "CreateDAO",
      "type": "event"
    },
    {
      "anonymous": false,
      "inputs": [
        {
          "indexed": true,
          "internalType": "address",
          "name": "previousOwner",
          "type": "address"
        },
        {
          "indexed": true,
          "internalType": "address",
          "name": "newOwner",
          "type": "address"
        }
      ],
      "name": "OwnershipTransferred",
      "type": "event"
    },
    {
      "inputs": [
        {
          "internalType": "string",
          "name": "",
          "type": "string"
        }
      ],
      "name": "collectionDaoList",
      "outputs": [
        {
          "internalType": "bool",
          "name": "",
          "type": "bool"
        }
      ],
      "stateMutability": "view",
      "type": "function"
    },
    {
      "inputs": [
        {
          "internalType": "string",
          "name": "collectionSlug",
          "type": "string"
        },
        {
          "internalType": "string",
          "name": "name",
          "type": "string"
        },
        {
          "internalType": "string",
          "name": "facebook",
          "type": "string"
        },
        {
          "internalType": "string",
          "name": "twitter",
          "type": "string"
        }
      ],
      "name": "createDao",
      "outputs": [],
      "stateMutability": "nonpayable",
      "type": "function"
    },
    {
      "inputs": [
        {
          "internalType": "contract IERC721",
          "name": "",
          "type": "address"
        }
      ],
      "name": "daoList",
      "outputs": [
        {
          "internalType": "bool",
          "name": "",
          "type": "bool"
        }
      ],
      "stateMutability": "view",
      "type": "function"
    },
    {
      "inputs": [],
      "name": "initialize",
      "outputs": [],
      "stateMutability": "nonpayable",
      "type": "function"
    },
    {
      "inputs": [],
      "name": "owner",
      "outputs": [
        {
          "internalType": "address",
          "name": "",
          "type": "address"
        }
      ],
      "stateMutability": "view",
      "type": "function"
    },
    {
      "inputs": [],
      "name": "renounceOwnership",
      "outputs": [],
      "stateMutability": "nonpayable",
      "type": "function"
    },
    {
      "inputs": [
        {
          "internalType": "address",
          "name": "newOwner",
          "type": "address"
        }
      ],
      "name": "transferOwnership",
      "outputs": [],
      "stateMutability": "nonpayable",
      "type": "function"
    },
    {
      "inputs": [
        {
          "internalType": "contract IERC721",
          "name": "",
          "type": "address"
        }
      ],
      "name": "whitelist",
      "outputs": [
        {
          "internalType": "bool",
          "name": "",
          "type": "bool"
        }
      ],
      "stateMutability": "view",
      "type": "function"
    }
  ],
  "bytecode": "0x608060405234801561001057600080fd5b50610a42806100206000396000f3fe608060405234801561001057600080fd5b50600436106100885760003560e01c80638129fc1c1161005b5780638129fc1c146101105780638da5cb5b146101185780639b19251a14610140578063f2fde38b1461016357600080fd5b80631b44c40e1461008d57806366290cfc146100a25780636659585b146100e5578063715018a614610108575b600080fd5b6100a061009b366004610825565b610176565b005b6100d06100b03660046107ea565b805160208183018101805160678252928201919093012091525460ff1681565b60405190151581526020015b60405180910390f35b6100d06100f33660046107c7565b60666020526000908152604090205460ff1681565b6100a0610297565b6100a0610324565b60335460405173ffffffffffffffffffffffffffffffffffffffff90911681526020016100dc565b6100d061014e3660046107c7565b60656020526000908152604090205460ff1681565b6100a06101713660046107c7565b610448565b6067846040516101869190610917565b9081526040519081900360200190205460ff1615610205576040517f08c379a000000000000000000000000000000000000000000000000000000000815260206004820152600f60248201527f616c72656164792065786973746564000000000000000000000000000000000060448201526064015b60405180910390fd5b60016067856040516102179190610917565b90815260405190819003602001812080549215157fffffffffffffffffffffffffffffffffffffffffffffffffffffffffffffff00909316929092179091557f6b5638b13ef02fba0109a5c4df71cf6e3d03669ea97710a26f658cf9c423d9dd90610289908690869086908690610933565b60405180910390a150505050565b60335473ffffffffffffffffffffffffffffffffffffffff163314610318576040517f08c379a000000000000000000000000000000000000000000000000000000000815260206004820181905260248201527f4f776e61626c653a2063616c6c6572206973206e6f7420746865206f776e657260448201526064016101fc565b6103226000610571565b565b600054610100900460ff1661033f5760005460ff1615610343565b303b155b6103cf576040517f08c379a000000000000000000000000000000000000000000000000000000000815260206004820152602e60248201527f496e697469616c697a61626c653a20636f6e747261637420697320616c72656160448201527f647920696e697469616c697a656400000000000000000000000000000000000060648201526084016101fc565b600054610100900460ff1615801561040e57600080547fffffffffffffffffffffffffffffffffffffffffffffffffffffffffffff0000166101011790555b6104166105e8565b801561044557600080547fffffffffffffffffffffffffffffffffffffffffffffffffffffffffffff00ff1690555b50565b60335473ffffffffffffffffffffffffffffffffffffffff1633146104c9576040517f08c379a000000000000000000000000000000000000000000000000000000000815260206004820181905260248201527f4f776e61626c653a2063616c6c6572206973206e6f7420746865206f776e657260448201526064016101fc565b73ffffffffffffffffffffffffffffffffffffffff811661056c576040517f08c379a000000000000000000000000000000000000000000000000000000000815260206004820152602660248201527f4f776e61626c653a206e6577206f776e657220697320746865207a65726f206160448201527f646472657373000000000000000000000000000000000000000000000000000060648201526084016101fc565b610445815b6033805473ffffffffffffffffffffffffffffffffffffffff8381167fffffffffffffffffffffffff0000000000000000000000000000000000000000831681179093556040519116919082907f8be0079c531659141344cd1fd0a4f28419497f9722a3daafe3b4186f6b6457e090600090a35050565b600054610100900460ff1661067f576040517f08c379a000000000000000000000000000000000000000000000000000000000815260206004820152602b60248201527f496e697469616c697a61626c653a20636f6e7472616374206973206e6f74206960448201527f6e697469616c697a696e6700000000000000000000000000000000000000000060648201526084016101fc565b610322600054610100900460ff16610719576040517f08c379a000000000000000000000000000000000000000000000000000000000815260206004820152602b60248201527f496e697469616c697a61626c653a20636f6e7472616374206973206e6f74206960448201527f6e697469616c697a696e6700000000000000000000000000000000000000000060648201526084016101fc565b61032233610571565b600082601f830112610732578081fd5b813567ffffffffffffffff8082111561074d5761074d6109bb565b604051601f83017fffffffffffffffffffffffffffffffffffffffffffffffffffffffffffffffe0908116603f01168101908282118183101715610793576107936109bb565b816040528381528660208588010111156107ab578485fd5b8360208701602083013792830160200193909352509392505050565b6000602082840312156107d8578081fd5b81356107e3816109ea565b9392505050565b6000602082840312156107fb578081fd5b813567ffffffffffffffff811115610811578182fd5b61081d84828501610722565b949350505050565b6000806000806080858703121561083a578283fd5b843567ffffffffffffffff80821115610851578485fd5b61085d88838901610722565b95506020870135915080821115610872578485fd5b61087e88838901610722565b94506040870135915080821115610893578384fd5b61089f88838901610722565b935060608701359150808211156108b4578283fd5b506108c187828801610722565b91505092959194509250565b600081518084526108e581602086016020860161098b565b601f017fffffffffffffffffffffffffffffffffffffffffffffffffffffffffffffffe0169290920160200192915050565b6000825161092981846020870161098b565b9190910192915050565b60808152600061094660808301876108cd565b828103602084015261095881876108cd565b9050828103604084015261096c81866108cd565b9050828103606084015261098081856108cd565b979650505050505050565b60005b838110156109a657818101518382015260200161098e565b838111156109b5576000848401525b50505050565b7f4e487b7100000000000000000000000000000000000000000000000000000000600052604160045260246000fd5b73ffffffffffffffffffffffffffffffffffffffff8116811461044557600080fdfea264697066735822122009ca1dbc59de009feeaf0a1a66787bfede4d336965b05e6c52a736ee1c77e82764736f6c63430008040033",
  "linkReferences": {},
  "deployedLinkReferences": {}
}