{
  "_format": "hh-sol-artifact-1",
  "contractName": "PlatwinNFT",
  "sourceName": "contracts/nft/PlatwinNFT.sol",
  "abi": [
    {
      "inputs": [],
      "stateMutability": "nonpayable",
      "type": "constructor"
    },
    {
      "anonymous": false,
      "inputs": [
        {
          "indexed": true,
          "internalType": "address",
          "name": "owner",
          "type": "address"
        },
        {
          "indexed": true,
          "internalType": "address",
          "name": "approved",
          "type": "address"
        },
        {
          "indexed": true,
          "internalType": "uint256",
          "name": "tokenId",
          "type": "uint256"
        }
      ],
      "name": "Approval",
      "type": "event"
    },
    {
      "anonymous": false,
      "inputs": [
        {
          "indexed": true,
          "internalType": "address",
          "name": "owner",
          "type": "address"
        },
        {
          "indexed": true,
          "internalType": "address",
          "name": "operator",
          "type": "address"
        },
        {
          "indexed": false,
          "internalType": "bool",
          "name": "approved",
          "type": "bool"
        }
      ],
      "name": "ApprovalForAll",
      "type": "event"
    },
    {
      "anonymous": false,
      "inputs": [
        {
          "indexed": false,
          "internalType": "string",
          "name": "oldURI",
          "type": "string"
        },
        {
          "indexed": false,
          "internalType": "string",
          "name": "newURI",
          "type": "string"
        }
      ],
      "name": "BaseURIUpdated",
      "type": "event"
    },
    {
      "anonymous": false,
      "inputs": [
        {
          "indexed": true,
          "internalType": "address",
          "name": "previousOwner",
          "type": "address"
        },
        {
          "indexed": true,
          "internalType": "address",
          "name": "newOwner",
          "type": "address"
        }
      ],
      "name": "OwnershipTransferred",
      "type": "event"
    },
    {
      "anonymous": false,
      "inputs": [
        {
          "indexed": true,
          "internalType": "address",
          "name": "from",
          "type": "address"
        },
        {
          "indexed": true,
          "internalType": "address",
          "name": "to",
          "type": "address"
        },
        {
          "indexed": true,
          "internalType": "uint256",
          "name": "tokenId",
          "type": "uint256"
        }
      ],
      "name": "Transfer",
      "type": "event"
    },
    {
      "anonymous": false,
      "inputs": [
        {
          "indexed": false,
          "internalType": "address",
          "name": "who",
          "type": "address"
        },
        {
          "indexed": false,
          "internalType": "bool",
          "name": "enabled",
          "type": "bool"
        }
      ],
      "name": "WhitelistUpdated",
      "type": "event"
    },
    {
      "inputs": [
        {
          "internalType": "address",
          "name": "to",
          "type": "address"
        },
        {
          "internalType": "uint256",
          "name": "tokenId",
          "type": "uint256"
        }
      ],
      "name": "approve",
      "outputs": [],
      "stateMutability": "nonpayable",
      "type": "function"
    },
    {
      "inputs": [
        {
          "internalType": "address",
          "name": "owner",
          "type": "address"
        }
      ],
      "name": "balanceOf",
      "outputs": [
        {
          "internalType": "uint256",
          "name": "",
          "type": "uint256"
        }
      ],
      "stateMutability": "view",
      "type": "function"
    },
    {
      "inputs": [],
      "name": "baseURI",
      "outputs": [
        {
          "internalType": "string",
          "name": "",
          "type": "string"
        }
      ],
      "stateMutability": "view",
      "type": "function"
    },
    {
      "inputs": [
        {
          "internalType": "address[]",
          "name": "tos",
          "type": "address[]"
        },
        {
          "internalType": "string[]",
          "name": "uris",
          "type": "string[]"
        }
      ],
      "name": "batchMint",
      "outputs": [],
      "stateMutability": "nonpayable",
      "type": "function"
    },
    {
      "inputs": [
        {
          "internalType": "address",
          "name": "to",
          "type": "address"
        },
        {
          "internalType": "string[]",
          "name": "uris",
          "type": "string[]"
        }
      ],
      "name": "batchMintToSameAddr",
      "outputs": [],
      "stateMutability": "nonpayable",
      "type": "function"
    },
    {
      "inputs": [
        {
          "internalType": "uint256",
          "name": "tokenId",
          "type": "uint256"
        }
      ],
      "name": "getApproved",
      "outputs": [
        {
          "internalType": "address",
          "name": "",
          "type": "address"
        }
      ],
      "stateMutability": "view",
      "type": "function"
    },
    {
      "inputs": [
        {
          "internalType": "address",
          "name": "owner",
          "type": "address"
        },
        {
          "internalType": "address",
          "name": "operator",
          "type": "address"
        }
      ],
      "name": "isApprovedForAll",
      "outputs": [
        {
          "internalType": "bool",
          "name": "",
          "type": "bool"
        }
      ],
      "stateMutability": "view",
      "type": "function"
    },
    {
      "inputs": [
        {
          "internalType": "address",
          "name": "to",
          "type": "address"
        },
        {
          "internalType": "string",
          "name": "uri",
          "type": "string"
        }
      ],
      "name": "mint",
      "outputs": [],
      "stateMutability": "nonpayable",
      "type": "function"
    },
    {
      "inputs": [
        {
          "internalType": "uint256",
          "name": "",
          "type": "uint256"
        }
      ],
      "name": "minter",
      "outputs": [
        {
          "internalType": "address",
          "name": "",
          "type": "address"
        }
      ],
      "stateMutability": "view",
      "type": "function"
    },
    {
      "inputs": [],
      "name": "name",
      "outputs": [
        {
          "internalType": "string",
          "name": "",
          "type": "string"
        }
      ],
      "stateMutability": "view",
      "type": "function"
    },
    {
      "inputs": [],
      "name": "owner",
      "outputs": [
        {
          "internalType": "address",
          "name": "",
          "type": "address"
        }
      ],
      "stateMutability": "view",
      "type": "function"
    },
    {
      "inputs": [
        {
          "internalType": "uint256",
          "name": "tokenId",
          "type": "uint256"
        }
      ],
      "name": "ownerOf",
      "outputs": [
        {
          "internalType": "address",
          "name": "",
          "type": "address"
        }
      ],
      "stateMutability": "view",
      "type": "function"
    },
    {
      "inputs": [],
      "name": "renounceOwnership",
      "outputs": [],
      "stateMutability": "nonpayable",
      "type": "function"
    },
    {
      "inputs": [
        {
          "internalType": "address",
          "name": "to",
          "type": "address"
        },
        {
          "internalType": "string",
          "name": "uri",
          "type": "string"
        }
      ],
      "name": "safeMint",
      "outputs": [],
      "stateMutability": "nonpayable",
      "type": "function"
    },
    {
      "inputs": [
        {
          "internalType": "address",
          "name": "from",
          "type": "address"
        },
        {
          "internalType": "address",
          "name": "to",
          "type": "address"
        },
        {
          "internalType": "uint256",
          "name": "tokenId",
          "type": "uint256"
        }
      ],
      "name": "safeTransferFrom",
      "outputs": [],
      "stateMutability": "nonpayable",
      "type": "function"
    },
    {
      "inputs": [
        {
          "internalType": "address",
          "name": "from",
          "type": "address"
        },
        {
          "internalType": "address",
          "name": "to",
          "type": "address"
        },
        {
          "internalType": "uint256",
          "name": "tokenId",
          "type": "uint256"
        },
        {
          "internalType": "bytes",
          "name": "_data",
          "type": "bytes"
        }
      ],
      "name": "safeTransferFrom",
      "outputs": [],
      "stateMutability": "nonpayable",
      "type": "function"
    },
    {
      "inputs": [
        {
          "internalType": "address",
          "name": "operator",
          "type": "address"
        },
        {
          "internalType": "bool",
          "name": "approved",
          "type": "bool"
        }
      ],
      "name": "setApprovalForAll",
      "outputs": [],
      "stateMutability": "nonpayable",
      "type": "function"
    },
    {
      "inputs": [
        {
          "internalType": "string",
          "name": "base",
          "type": "string"
        }
      ],
      "name": "setBaseURI",
      "outputs": [],
      "stateMutability": "nonpayable",
      "type": "function"
    },
    {
      "inputs": [
        {
          "internalType": "address",
          "name": "who",
          "type": "address"
        },
        {
          "internalType": "bool",
          "name": "enabled",
          "type": "bool"
        }
      ],
      "name": "setWhitelist",
      "outputs": [],
      "stateMutability": "nonpayable",
      "type": "function"
    },
    {
      "inputs": [
        {
          "internalType": "bytes4",
          "name": "interfaceId",
          "type": "bytes4"
        }
      ],
      "name": "supportsInterface",
      "outputs": [
        {
          "internalType": "bool",
          "name": "",
          "type": "bool"
        }
      ],
      "stateMutability": "view",
      "type": "function"
    },
    {
      "inputs": [],
      "name": "symbol",
      "outputs": [
        {
          "internalType": "string",
          "name": "",
          "type": "string"
        }
      ],
      "stateMutability": "view",
      "type": "function"
    },
    {
      "inputs": [],
      "name": "tokenIndex",
      "outputs": [
        {
          "internalType": "uint256",
          "name": "",
          "type": "uint256"
        }
      ],
      "stateMutability": "view",
      "type": "function"
    },
    {
      "inputs": [
        {
          "internalType": "uint256",
          "name": "tokenId",
          "type": "uint256"
        }
      ],
      "name": "tokenURI",
      "outputs": [
        {
          "internalType": "string",
          "name": "",
          "type": "string"
        }
      ],
      "stateMutability": "view",
      "type": "function"
    },
    {
      "inputs": [
        {
          "internalType": "address",
          "name": "from",
          "type": "address"
        },
        {
          "internalType": "address",
          "name": "to",
          "type": "address"
        },
        {
          "internalType": "uint256",
          "name": "tokenId",
          "type": "uint256"
        }
      ],
      "name": "transferFrom",
      "outputs": [],
      "stateMutability": "nonpayable",
      "type": "function"
    },
    {
      "inputs": [
        {
          "internalType": "address",
          "name": "newOwner",
          "type": "address"
        }
      ],
      "name": "transferOwnership",
      "outputs": [],
      "stateMutability": "nonpayable",
      "type": "function"
    },
    {
      "inputs": [
        {
          "internalType": "address",
          "name": "",
          "type": "address"
        }
      ],
      "name": "whitelist",
      "outputs": [
        {
          "internalType": "bool",
          "name": "",
          "type": "bool"
        }
      ],
      "stateMutability": "view",
      "type": "function"
    }
  ],
  "bytecode": "0x60806040523480156200001157600080fd5b506040518060400160405280600b81526020016a141b185d1dda5b8813919560aa1b8152506040518060400160405280600b81526020016a1413105515d2538b53919560aa1b81525081600090805190602001906200007292919062000141565b5080516200008890600190602084019062000141565b50505060006200009d6200013d60201b60201c565b600680546001600160a01b0319166001600160a01b038316908117909155604051919250906000907f8be0079c531659141344cd1fd0a4f28419497f9722a3daafe3b4186f6b6457e0908290a350336000908152600a6020908152604091829020805460ff191660011790558151808301909252600780835266697066733a2f2f60c81b929091019182526200013691600b9162000141565b5062000224565b3390565b8280546200014f90620001e7565b90600052602060002090601f016020900481019282620001735760008555620001be565b82601f106200018e57805160ff1916838001178555620001be565b82800160010185558215620001be579182015b82811115620001be578251825591602001919060010190620001a1565b50620001cc929150620001d0565b5090565b5b80821115620001cc5760008155600101620001d1565b600181811c90821680620001fc57607f821691505b602082108114156200021e57634e487b7160e01b600052602260045260246000fd5b50919050565b61285480620002346000396000f3fe608060405234801561001057600080fd5b50600436106101ae5760003560e01c8063715018a6116100ee578063b88d4fde11610097578063d204c45e11610071578063d204c45e146103be578063d55f9273146103d1578063e985e9c5146103da578063f2fde38b1461042357600080fd5b8063b88d4fde14610385578063c87b56dd14610398578063d0def521146103ab57600080fd5b80639b19251a116100c85780639b19251a14610319578063a22cb4651461033c578063ac8d856c1461034f57600080fd5b8063715018a6146102eb5780638da5cb5b146102f357806395d89b411461031157600080fd5b806342842e0e1161015b5780636352211e116101355780636352211e1461029c57806364ba144e146102af5780636c0360eb146102c257806370a08231146102ca57600080fd5b806342842e0e1461026357806353d6fd591461027657806355f804b31461028957600080fd5b8063095ea7b31161018c578063095ea7b31461022857806323b872dd1461023d5780632b6529f41461025057600080fd5b806301ffc9a7146101b357806306fdde03146101db578063081812fc146101f0575b600080fd5b6101c66101c1366004612406565b610436565b60405190151581526020015b60405180910390f35b6101e361051b565b6040516101d2919061261f565b6102036101fe366004612471565b6105ad565b60405173ffffffffffffffffffffffffffffffffffffffff90911681526020016101d2565b61023b610236366004612326565b61068c565b005b61023b61024b3660046121aa565b610819565b61023b61025e36600461225e565b6108ba565b61023b6102713660046121aa565b6109a1565b61023b6102843660046122aa565b6109bc565b61023b61029736600461243e565b610acc565b6102036102aa366004612471565b610c23565b61023b6102bd36600461234f565b610cd5565b6101e3610e54565b6102dd6102d836600461215e565b610ee2565b6040519081526020016101d2565b61023b610fb0565b60065473ffffffffffffffffffffffffffffffffffffffff16610203565b6101e36110a0565b6101c661032736600461215e565b600a6020526000908152604090205460ff1681565b61023b61034a3660046122aa565b6110af565b61020361035d366004612471565b60096020526000908152604090205473ffffffffffffffffffffffffffffffffffffffff1681565b61023b6103933660046121e5565b6111c6565b6101e36103a6366004612471565b611268565b61023b6103b93660046122e4565b6112a2565b61023b6103cc3660046122e4565b61139b565b6102dd60075481565b6101c66103e8366004612178565b73ffffffffffffffffffffffffffffffffffffffff918216600090815260056020908152604080832093909416825291909152205460ff1690565b61023b61043136600461215e565b611420565b60007fffffffff0000000000000000000000000000000000000000000000000000000082167f80ac58cd0000000000000000000000000000000000000000000000000000000014806104c957507fffffffff0000000000000000000000000000000000000000000000000000000082167f5b5e139f00000000000000000000000000000000000000000000000000000000145b8061051557507f01ffc9a7000000000000000000000000000000000000000000000000000000007fffffffff000000000000000000000000000000000000000000000000000000008316145b92915050565b60606000805461052a90612702565b80601f016020809104026020016040519081016040528092919081815260200182805461055690612702565b80156105a35780601f10610578576101008083540402835291602001916105a3565b820191906000526020600020905b81548152906001019060200180831161058657829003601f168201915b5050505050905090565b60008181526002602052604081205473ffffffffffffffffffffffffffffffffffffffff16610663576040517f08c379a000000000000000000000000000000000000000000000000000000000815260206004820152602c60248201527f4552433732313a20617070726f76656420717565727920666f72206e6f6e657860448201527f697374656e7420746f6b656e000000000000000000000000000000000000000060648201526084015b60405180910390fd5b5060009081526004602052604090205473ffffffffffffffffffffffffffffffffffffffff1690565b600061069782610c23565b90508073ffffffffffffffffffffffffffffffffffffffff168373ffffffffffffffffffffffffffffffffffffffff161415610755576040517f08c379a000000000000000000000000000000000000000000000000000000000815260206004820152602160248201527f4552433732313a20617070726f76616c20746f2063757272656e74206f776e6560448201527f7200000000000000000000000000000000000000000000000000000000000000606482015260840161065a565b3373ffffffffffffffffffffffffffffffffffffffff8216148061077e575061077e81336103e8565b61080a576040517f08c379a000000000000000000000000000000000000000000000000000000000815260206004820152603860248201527f4552433732313a20617070726f76652063616c6c6572206973206e6f74206f7760448201527f6e6572206e6f7220617070726f76656420666f7220616c6c0000000000000000606482015260840161065a565b61081483836115d2565b505050565b6108233382611672565b6108af576040517f08c379a000000000000000000000000000000000000000000000000000000000815260206004820152603160248201527f4552433732313a207472616e736665722063616c6c6572206973206e6f74206f60448201527f776e6572206e6f7220617070726f766564000000000000000000000000000000606482015260840161065a565b6108148383836117e2565b336000818152600a602052604090205460ff16610933576040517f08c379a000000000000000000000000000000000000000000000000000000000815260206004820152600860248201527f64697361626c6564000000000000000000000000000000000000000000000000604482015260640161065a565b60005b825181101561099b576109898484838151811061097c577f4e487b7100000000000000000000000000000000000000000000000000000000600052603260045260246000fd5b602002602001015161139b565b8061099381612756565b915050610936565b50505050565b610814838383604051806020016040528060008152506111c6565b60065473ffffffffffffffffffffffffffffffffffffffff163314610a3d576040517f08c379a000000000000000000000000000000000000000000000000000000000815260206004820181905260248201527f4f776e61626c653a2063616c6c6572206973206e6f7420746865206f776e6572604482015260640161065a565b73ffffffffffffffffffffffffffffffffffffffff82166000818152600a602090815260409182902080547fffffffffffffffffffffffffffffffffffffffffffffffffffffffffffffff00168515159081179091558251938452908301527ff93f9a76c1bf3444d22400a00cb9fe990e6abe9dbb333fda48859cfee864543d91015b60405180910390a15050565b60065473ffffffffffffffffffffffffffffffffffffffff163314610b4d576040517f08c379a000000000000000000000000000000000000000000000000000000000815260206004820181905260248201527f4f776e61626c653a2063616c6c6572206973206e6f7420746865206f776e6572604482015260640161065a565b6000600b8054610b5c90612702565b80601f0160208091040260200160405190810160405280929190818152602001828054610b8890612702565b8015610bd55780601f10610baa57610100808354040283529160200191610bd5565b820191906000526020600020905b815481529060010190602001808311610bb857829003601f168201915b50508551939450610bf193600b93506020870192509050611f6e565b507f309b29ded109b9e28fb9885757b3e0096eb75c51d23aa4635d68bcd569f6adc18183604051610ac0929190612632565b60008181526002602052604081205473ffffffffffffffffffffffffffffffffffffffff1680610515576040517f08c379a000000000000000000000000000000000000000000000000000000000815260206004820152602960248201527f4552433732313a206f776e657220717565727920666f72206e6f6e657869737460448201527f656e7420746f6b656e0000000000000000000000000000000000000000000000606482015260840161065a565b336000818152600a602052604090205460ff16610d4e576040517f08c379a000000000000000000000000000000000000000000000000000000000815260206004820152600860248201527f64697361626c6564000000000000000000000000000000000000000000000000604482015260640161065a565b8151835114610db9576040517f08c379a000000000000000000000000000000000000000000000000000000000815260206004820152600960248201527f696c6c20706172616d0000000000000000000000000000000000000000000000604482015260640161065a565b60005b825181101561099b57610e42848281518110610e01577f4e487b7100000000000000000000000000000000000000000000000000000000600052603260045260246000fd5b602002602001015184838151811061097c577f4e487b7100000000000000000000000000000000000000000000000000000000600052603260045260246000fd5b80610e4c81612756565b915050610dbc565b600b8054610e6190612702565b80601f0160208091040260200160405190810160405280929190818152602001828054610e8d90612702565b8015610eda5780601f10610eaf57610100808354040283529160200191610eda565b820191906000526020600020905b815481529060010190602001808311610ebd57829003601f168201915b505050505081565b600073ffffffffffffffffffffffffffffffffffffffff8216610f87576040517f08c379a000000000000000000000000000000000000000000000000000000000815260206004820152602a60248201527f4552433732313a2062616c616e636520717565727920666f7220746865207a6560448201527f726f206164647265737300000000000000000000000000000000000000000000606482015260840161065a565b5073ffffffffffffffffffffffffffffffffffffffff1660009081526003602052604090205490565b60065473ffffffffffffffffffffffffffffffffffffffff163314611031576040517f08c379a000000000000000000000000000000000000000000000000000000000815260206004820181905260248201527f4f776e61626c653a2063616c6c6572206973206e6f7420746865206f776e6572604482015260640161065a565b60065460405160009173ffffffffffffffffffffffffffffffffffffffff16907f8be0079c531659141344cd1fd0a4f28419497f9722a3daafe3b4186f6b6457e0908390a3600680547fffffffffffffffffffffffff0000000000000000000000000000000000000000169055565b60606001805461052a90612702565b73ffffffffffffffffffffffffffffffffffffffff821633141561112f576040517f08c379a000000000000000000000000000000000000000000000000000000000815260206004820152601960248201527f4552433732313a20617070726f766520746f2063616c6c657200000000000000604482015260640161065a565b33600081815260056020908152604080832073ffffffffffffffffffffffffffffffffffffffff87168085529083529281902080547fffffffffffffffffffffffffffffffffffffffffffffffffffffffffffffff001686151590811790915590519081529192917f17307eab39ab6107e8899845ad3d59bd9653f200f220920489ca2b5937696c31910160405180910390a35050565b6111d03383611672565b61125c576040517f08c379a000000000000000000000000000000000000000000000000000000000815260206004820152603160248201527f4552433732313a207472616e736665722063616c6c6572206973206e6f74206f60448201527f776e6572206e6f7220617070726f766564000000000000000000000000000000606482015260840161065a565b61099b84848484611a49565b600081815260086020908152604091829020915160609261128c92600b92016125c1565b6040516020818303038152906040529050919050565b336000818152600a602052604090205460ff1661131b576040517f08c379a000000000000000000000000000000000000000000000000000000000815260206004820152600860248201527f64697361626c6564000000000000000000000000000000000000000000000000604482015260640161065a565b61132783600754611aec565b6007546000908152600860209081526040909120835161134992850190611f6e565b5060078054600090815260096020526040812080547fffffffffffffffffffffffff000000000000000000000000000000000000000016331790558154919061139183612756565b9190505550505050565b336000818152600a602052604090205460ff16611414576040517f08c379a000000000000000000000000000000000000000000000000000000000815260206004820152600860248201527f64697361626c6564000000000000000000000000000000000000000000000000604482015260640161065a565b61132783600754611cae565b60065473ffffffffffffffffffffffffffffffffffffffff1633146114a1576040517f08c379a000000000000000000000000000000000000000000000000000000000815260206004820181905260248201527f4f776e61626c653a2063616c6c6572206973206e6f7420746865206f776e6572604482015260640161065a565b73ffffffffffffffffffffffffffffffffffffffff8116611544576040517f08c379a000000000000000000000000000000000000000000000000000000000815260206004820152602660248201527f4f776e61626c653a206e6577206f776e657220697320746865207a65726f206160448201527f6464726573730000000000000000000000000000000000000000000000000000606482015260840161065a565b60065460405173ffffffffffffffffffffffffffffffffffffffff8084169216907f8be0079c531659141344cd1fd0a4f28419497f9722a3daafe3b4186f6b6457e090600090a3600680547fffffffffffffffffffffffff00000000000000000000000000000000000000001673ffffffffffffffffffffffffffffffffffffffff92909216919091179055565b600081815260046020526040902080547fffffffffffffffffffffffff00000000000000000000000000000000000000001673ffffffffffffffffffffffffffffffffffffffff8416908117909155819061162c82610c23565b73ffffffffffffffffffffffffffffffffffffffff167f8c5be1e5ebec7d5bd14f71427d1e84f3dd0314c0f7b2291e5b200ac8c7c3b92560405160405180910390a45050565b60008181526002602052604081205473ffffffffffffffffffffffffffffffffffffffff16611723576040517f08c379a000000000000000000000000000000000000000000000000000000000815260206004820152602c60248201527f4552433732313a206f70657261746f7220717565727920666f72206e6f6e657860448201527f697374656e7420746f6b656e0000000000000000000000000000000000000000606482015260840161065a565b600061172e83610c23565b90508073ffffffffffffffffffffffffffffffffffffffff168473ffffffffffffffffffffffffffffffffffffffff16148061179d57508373ffffffffffffffffffffffffffffffffffffffff16611785846105ad565b73ffffffffffffffffffffffffffffffffffffffff16145b806117da575073ffffffffffffffffffffffffffffffffffffffff80821660009081526005602090815260408083209388168352929052205460ff165b949350505050565b8273ffffffffffffffffffffffffffffffffffffffff1661180282610c23565b73ffffffffffffffffffffffffffffffffffffffff16146118a5576040517f08c379a000000000000000000000000000000000000000000000000000000000815260206004820152602960248201527f4552433732313a207472616e73666572206f6620746f6b656e2074686174206960448201527f73206e6f74206f776e0000000000000000000000000000000000000000000000606482015260840161065a565b73ffffffffffffffffffffffffffffffffffffffff8216611947576040517f08c379a0000000000000000000000000000000000000000000000000000000008152602060048201526024808201527f4552433732313a207472616e7366657220746f20746865207a65726f2061646460448201527f7265737300000000000000000000000000000000000000000000000000000000606482015260840161065a565b6119526000826115d2565b73ffffffffffffffffffffffffffffffffffffffff831660009081526003602052604081208054600192906119889084906126eb565b909155505073ffffffffffffffffffffffffffffffffffffffff821660009081526003602052604081208054600192906119c39084906126d3565b909155505060008181526002602052604080822080547fffffffffffffffffffffffff00000000000000000000000000000000000000001673ffffffffffffffffffffffffffffffffffffffff86811691821790925591518493918716917fddf252ad1be2c89b69c2b068fc378daa952ba7f163c4a11628f55a4df523b3ef91a4505050565b611a548484846117e2565b611a6084848484611ccc565b61099b576040517f08c379a000000000000000000000000000000000000000000000000000000000815260206004820152603260248201527f4552433732313a207472616e7366657220746f206e6f6e20455243373231526560448201527f63656976657220696d706c656d656e7465720000000000000000000000000000606482015260840161065a565b73ffffffffffffffffffffffffffffffffffffffff8216611b69576040517f08c379a000000000000000000000000000000000000000000000000000000000815260206004820181905260248201527f4552433732313a206d696e7420746f20746865207a65726f2061646472657373604482015260640161065a565b60008181526002602052604090205473ffffffffffffffffffffffffffffffffffffffff1615611bf5576040517f08c379a000000000000000000000000000000000000000000000000000000000815260206004820152601c60248201527f4552433732313a20746f6b656e20616c7265616479206d696e74656400000000604482015260640161065a565b73ffffffffffffffffffffffffffffffffffffffff82166000908152600360205260408120805460019290611c2b9084906126d3565b909155505060008181526002602052604080822080547fffffffffffffffffffffffff00000000000000000000000000000000000000001673ffffffffffffffffffffffffffffffffffffffff861690811790915590518392907fddf252ad1be2c89b69c2b068fc378daa952ba7f163c4a11628f55a4df523b3ef908290a45050565b611cc8828260405180602001604052806000815250611ecb565b5050565b600073ffffffffffffffffffffffffffffffffffffffff84163b15611ec0576040517f150b7a0200000000000000000000000000000000000000000000000000000000815273ffffffffffffffffffffffffffffffffffffffff85169063150b7a0290611d439033908990889088906004016125d6565b602060405180830381600087803b158015611d5d57600080fd5b505af1925050508015611dab575060408051601f3d9081017fffffffffffffffffffffffffffffffffffffffffffffffffffffffffffffffe0168201909252611da891810190612422565b60015b611e75573d808015611dd9576040519150601f19603f3d011682016040523d82523d6000602084013e611dde565b606091505b508051611e6d576040517f08c379a000000000000000000000000000000000000000000000000000000000815260206004820152603260248201527f4552433732313a207472616e7366657220746f206e6f6e20455243373231526560448201527f63656976657220696d706c656d656e7465720000000000000000000000000000606482015260840161065a565b805181602001fd5b7fffffffff00000000000000000000000000000000000000000000000000000000167f150b7a02000000000000000000000000000000000000000000000000000000001490506117da565b506001949350505050565b611ed58383611aec565b611ee26000848484611ccc565b610814576040517f08c379a000000000000000000000000000000000000000000000000000000000815260206004820152603260248201527f4552433732313a207472616e7366657220746f206e6f6e20455243373231526560448201527f63656976657220696d706c656d656e7465720000000000000000000000000000606482015260840161065a565b828054611f7a90612702565b90600052602060002090601f016020900481019282611f9c5760008555611fe2565b82601f10611fb557805160ff1916838001178555611fe2565b82800160010185558215611fe2579182015b82811115611fe2578251825591602001919060010190611fc7565b50611fee929150611ff2565b5090565b5b80821115611fee5760008155600101611ff3565b600067ffffffffffffffff831115612021576120216127be565b61205260207fffffffffffffffffffffffffffffffffffffffffffffffffffffffffffffffe0601f86011601612660565b905082815283838301111561206657600080fd5b828260208301376000602084830101529392505050565b803573ffffffffffffffffffffffffffffffffffffffff811681146120a157600080fd5b919050565b600082601f8301126120b6578081fd5b813560206120cb6120c6836126af565b612660565b80838252828201915082860187848660051b89010111156120ea578586fd5b855b8581101561212b57813567ffffffffffffffff81111561210a578788fd5b6121188a87838c0101612138565b85525092840192908401906001016120ec565b5090979650505050505050565b600082601f830112612148578081fd5b61215783833560208501612007565b9392505050565b60006020828403121561216f578081fd5b6121578261207d565b6000806040838503121561218a578081fd5b6121938361207d565b91506121a16020840161207d565b90509250929050565b6000806000606084860312156121be578081fd5b6121c78461207d565b92506121d56020850161207d565b9150604084013590509250925092565b600080600080608085870312156121fa578081fd5b6122038561207d565b93506122116020860161207d565b925060408501359150606085013567ffffffffffffffff811115612233578182fd5b8501601f81018713612243578182fd5b61225287823560208401612007565b91505092959194509250565b60008060408385031215612270578182fd5b6122798361207d565b9150602083013567ffffffffffffffff811115612294578182fd5b6122a0858286016120a6565b9150509250929050565b600080604083850312156122bc578182fd5b6122c58361207d565b9150602083013580151581146122d9578182fd5b809150509250929050565b600080604083850312156122f6578182fd5b6122ff8361207d565b9150602083013567ffffffffffffffff81111561231a578182fd5b6122a085828601612138565b60008060408385031215612338578182fd5b6123418361207d565b946020939093013593505050565b60008060408385031215612361578182fd5b823567ffffffffffffffff80821115612378578384fd5b818501915085601f83011261238b578384fd5b8135602061239b6120c6836126af565b8083825282820191508286018a848660051b89010111156123ba578889fd5b8896505b848710156123e3576123cf8161207d565b8352600196909601959183019183016123be565b50965050860135925050808211156123f9578283fd5b506122a0858286016120a6565b600060208284031215612417578081fd5b8135612157816127ed565b600060208284031215612433578081fd5b8151612157816127ed565b60006020828403121561244f578081fd5b813567ffffffffffffffff811115612465578182fd5b6117da84828501612138565b600060208284031215612482578081fd5b5035919050565b60008151808452815b818110156124ae57602081850181015186830182015201612492565b818111156124bf5782602083870101525b50601f017fffffffffffffffffffffffffffffffffffffffffffffffffffffffffffffffe0169290920160200192915050565b8054600090600181811c908083168061250c57607f831692505b6020808410821415612545577f4e487b710000000000000000000000000000000000000000000000000000000086526022600452602486fd5b8180156125595760018114612588576125b5565b7fffffffffffffffffffffffffffffffffffffffffffffffffffffffffffffff008616895284890196506125b5565b60008881526020902060005b868110156125ad5781548b820152908501908301612594565b505084890196505b50505050505092915050565b60006117da6125d083866124f2565b846124f2565b600073ffffffffffffffffffffffffffffffffffffffff8087168352808616602084015250836040830152608060608301526126156080830184612489565b9695505050505050565b6020815260006121576020830184612489565b6040815260006126456040830185612489565b82810360208401526126578185612489565b95945050505050565b604051601f82017fffffffffffffffffffffffffffffffffffffffffffffffffffffffffffffffe016810167ffffffffffffffff811182821017156126a7576126a76127be565b604052919050565b600067ffffffffffffffff8211156126c9576126c96127be565b5060051b60200190565b600082198211156126e6576126e661278f565b500190565b6000828210156126fd576126fd61278f565b500390565b600181811c9082168061271657607f821691505b60208210811415612750577f4e487b7100000000000000000000000000000000000000000000000000000000600052602260045260246000fd5b50919050565b60007fffffffffffffffffffffffffffffffffffffffffffffffffffffffffffffffff8214156127885761278861278f565b5060010190565b7f4e487b7100000000000000000000000000000000000000000000000000000000600052601160045260246000fd5b7f4e487b7100000000000000000000000000000000000000000000000000000000600052604160045260246000fd5b7fffffffff000000000000000000000000000000000000000000000000000000008116811461281b57600080fd5b5056fea26469706673582212205a607557f5ba76fa953c8758de52fcc0c8acabd46812573d4887243a0710eabd64736f6c63430008040033",
  "linkReferences": {},
  "deployedLinkReferences": {}
}